S0220000736B79776176655F6174786D65676131323861315F66696E616C2E737265631C
S1130000FCC1000020C200001EC200001CC200008F
S11300101AC2000018C2000016C2000014C2000078
S113002012C2000010C200000EC200000CC2000088
S11300300AC200000C94590E4AC4000080C4000097
S11300400C949E2EB4C40000EAC4000020C5000035
S113005056C500008CC50000C2C50000F8C50000EC
S1130060F2C100000C94EB2FEEC10000ECC10000C3
S11300700C946D15E8C10000E6C10000E4C1000065
S1130080E2C10000E0C10000DEC10000DCC10000EC
S1130090DAC10000D8C10000D6C1000014C30000BA
S11300A04FC300008AC30000C5C30000CCC10000D8
S11300B0CAC10000C8C100000C94BD0E0C948F0886
S11300C00C94C7080C94FF080C9437090C946F091E
S11300D00C94A7090C94DF090C94170A0C944F0A8A
S11300E00C94870AB0C10000AEC10000ACC100008E
S11300F0AAC10000A8C10000A6C10000A4C100005C
S11301000C9496170C94CE140C94291D9CC10000D9
S11301109AC1000098C1000096C10000E0C100002F
S11301201BC2000056C2000091C200008CC1000036
S11301300C948B0EC4C50000FAC5000030C6000044
S113014066C600009CC60000D2C6000008C70000B6
S11301503EC7000074C70000AAC7000074C10000B5
S113016072C1000070C100006EC100006CC10000CB
S11301706AC1000068C1000066C1000064C10000DB
S113018062C1000060C100005EC100005CC10000EB
S11301905AC1000058C1000056C1000054C10000FB
S11301A052C1000050C100004EC100000C94EF0E7B
S11301B00C94BF0A0C94F70A0C942F0B0C94670B45
S11301C00C949F0B0C94D70B0C940F0C0C94470CB1
S11301D00C947F0C0C94B70C36C1000034C10000A1
S11301E032C1000030C100002EC100002CC100004B
S11301F02AC1000028C1000026C10000FA120D1314
S113020020133313461359136C137F13036EDB3619
S11302103D9A9999993DABAAAA2A3E000000803FD5
S1130220084AD73B3BCE016E84BCBFFDC12F3D6C59
S113023074319ABD56833DDA3D00C77F11BED9E4BF
S1130240BB4C3E916BAAAABE000000803F072C7AEB
S1130250A5BA6CC590DA3B9365FC8BBC53F810FDD2
S11302603C5692834DBD879D3AB63DCBC9BF5BBE1C
S113027073DA0FC93F08000000BE922449123EAB56
S1130280AAAA2ABECDCCCC4C3E00000080BEABAAAC
S1130290AAAA3E00000000BF000000803F0000004A
S11302A00000084178D3BB4387D1133D190E3CC3EA
S11302B0BD4282AD2B3E68EC8276BED98FE1A93E69
S11302C04C80EFFFBE01C4FF7F3F00000000000729
S11302D0634236B79BD8A71A39685618AEBAAB55DD
S11302E08C1D3CB7CC5763BD6DEDFD753EF61772A2
S11302F031BF000000803F006E616E00696E6600D1
S113030000407A10F35A00A0724E18090010A5D4C8
S1130310E80000E87648170000E40B54020000CA25
S11303209A3B000000E1F50500008096980000006B
S113033040420F000000A0860100000010270000CA
S11303400000E803000000006400000000000A0050
S1130350000000000100000000002C76D888DC6753
S11303604F0823DFC1DFAE59E1B1B796E5E3E453AB
S1130370C63AE651997696E8E6C28426EB898C9BC8
S113038062ED407C6FFCEFBC9C9F40F2BAA56FA568
S1130390F490055A2AF75C936B6CF9676DC11BFCEA
S11303A0E0E40D47FEF520E6B500D0ED902E030005
S11303B0943577050080841E080000204E0A000052
S11303C000C80C333333330F986E12831141EF8D11
S11303D02114893BE65516CFFEE6DB18D1844B3851
S11303E01BF77C1D901DA4BBE424203284725E2282
S11303F08100C9F124ECA1E53D2711241FBECFEFF4
S1130400CDBFDFE3DEBF00E00CBF18BE19BE1ABECD
S11304101BBE11E2A0E0B0E2EEE3F8E700E00BBFA0
S113042002C007900D92A23CB107D9F71BBE29E286
S1130430A2ECB1E201C01D92AD3AB207E1F70E940D
S1130440CE300C941D3CDCCDCF93DF931F921F92D2
S1130450CDB7DEB78FEF80937000809371008093E7
S1130460720080937300809374008093750080936E
S113047076008FB78A83F8949A81E0E5F0E0808172
S1130480826080839FBF818181FFFDCF61E080E432
S113049090E00DD28FB78983F8949981E0E5F0E07C
S11304A080818E7F80839FBF0F900F90DF91CF91CB
S11304B00895CF93DF931F92CDB7DEB79FB799838B
S11304C0F8949981E82FF0E0E059FF4F609580811E
S11304D0682360839FBF0F90DF91CF9108951F928F
S11304E00F920FB60F92112408B60F9218BE09B6D8
S11304F00F9219BE0BB60F921BBE2F933F934F93CF
S11305005F936F937F938F939F93AF93BF93EF9377
S1130510FF934091240250912502E0913925F091F6
S11305203A2561E080E092E01995FF91EF91BF9147
S1130530AF919F918F917F916F915F914F913F9177
S11305402F910F900BBE0F9009BE0F9008BE0F9015
S11305500FBE0F901F9018951F920F920FB60F9217
S1130560112408B60F9218BE09B60F9219BE0BB625
S11305700F921BBE2F933F934F935F936F937F9381
S11305808F939F93AF93BF93EF93FF9340912C026C
S113059050912D02E0913925F0913A2562E080E0F6
S11305A092E01995FF91EF91BF91AF919F918F9137
S11305B07F916F915F914F913F912F910F900BBE5F
S11305C00F9009BE0F9008BE0F900FBE0F901F90A2
S11305D018951F920F920FB60F92112408B60F921E
S11305E018BE09B60F9219BE0BB60F921BBE2F93FD
S11305F03F934F935F936F937F938F939F93AF93A7
S1130600BF93EF93FF934091340250913502E091F0
S11306103925F0913A2564E080E092E01995FF9144
S1130620EF91BF91AF919F918F917F916F915F9166
S11306304F913F912F910F900BBE0F9009BE0F90D9
S113064008BE0F900FBE0F901F9018951F920F9227
S11306500FB60F92112408B60F9218BE09B60F9266
S113066019BE0BB60F921BBE2F933F934F935F930C
S11306706F937F938F939F93AF93BF93EF93FF9366
S113068040913C0250913D02E0913925F0913A2588
S113069068E080E092E01995FF91EF91BF91AF91EE
S11306A09F918F917F916F915F914F913F912F9186
S11306B00F900BBE0F9009BE0F9008BE0F900FBE97
S11306C00F901F9018951F920F920FB60F9211243E
S11306D008B60F9218BE09B60F9219BE0BB60F9248
S11306E01BBE2F933F934F935F936F937F938F938F
S11306F09F93AF93BF93EF93FF9340916402509104
S11307006502E0913725F091382561E080E492E0BC
S11307101995FF91EF91BF91AF919F918F917F9127
S11307206F915F914F913F912F910F900BBE0F905E
S113073009BE0F9008BE0F900FBE0F901F90189522
S11307401F920F920FB60F92112408B60F9218BE83
S113075009B60F9219BE0BB60F921BBE2F933F938F
S11307604F935F936F937F938F939F93AF93BF93B5
S1130770EF93FF9340916C0250916D02E091372505
S1130780F091382562E080E492E01995FF91EF91B1
S1130790BF91AF919F918F917F916F915F914F9195
S11307A03F912F910F900BBE0F9009BE0F9008BE82
S11307B00F900FBE0F901F9018951F920F920FB6B7
S11307C00F92112408B60F9218BE09B60F9219BEE3
S11307D00BB60F921BBE2F933F934F935F936F9370
S11307E07F938F939F93AF93BF93EF93FF93409126
S11307F0740250917502E0913725F091382564E038
S113080080E492E01995FF91EF91BF91AF919F9190
S11308108F917F916F915F914F913F912F910F90A5
S11308200BBE0F9009BE0F9008BE0F900FBE0F9025
S11308301F9018951F920F920FB60F92112408B6AD
S11308400F9218BE09B60F9219BE0BB60F921BBEBB
S11308502F933F934F935F936F937F938F939F93C4
S1130860AF93BF93EF93FF9340917C0250917D022D
S1130870E0913725F091382568E080E492E01995FD
S1130880FF91EF91BF91AF919F918F917F916F9164
S11308905F914F913F912F910F900BBE0F9009BE26
S11308A00F9008BE0F900FBE0F901F9018951BBE9F
S11308B0FC0128ED24BF608308954091CA01E62F0E
S11308C0F72F8093CA0184914093CA0108951F921F
S11308D00F920FB60F92112408B60F9218BE09B6E4
S11308E00F9219BE0BB60F921BBE2F933F934F93DB
S11308F05F936F937F938F939F93AF93BF93EF9384
S1130900FF93E0910E22F0910F22309709F0199590
S1130910FF91EF91BF91AF919F918F917F916F91D3
S11309205F914F913F912F910F900BBE0F9009BE95
S11309300F9008BE0F900FBE0F901F9018951F9236
S11309400F920FB60F92112408B60F9218BE09B673
S11309500F9219BE0BB60F921BBE2F933F934F936A
S11309605F936F937F938F939F93AF93BF93EF9313
S1130970FF93E0910C22F0910D22309709F0199524
S1130980FF91EF91BF91AF919F918F917F916F9163
S11309905F914F913F912F910F900BBE0F9009BE25
S11309A00F9008BE0F900FBE0F901F9018951F92C6
S11309B00F920FB60F92112408B60F9218BE09B603
S11309C00F9219BE0BB60F921BBE2F933F934F93FA
S11309D05F936F937F938F939F93AF93BF93EF93A3
S11309E0FF93E0910A22F0910B22309709F01995B8
S11309F0FF91EF91BF91AF919F918F917F916F91F3
S1130A005F914F913F912F910F900BBE0F9009BEB4
S1130A100F9008BE0F900FBE0F901F9018951F9255
S1130A200F920FB60F92112408B60F9218BE09B692
S1130A300F9219BE0BB60F921BBE2F933F934F9389
S1130A405F936F937F938F939F93AF93BF93EF9332
S1130A50FF93E0910822F0910922309709F019954B
S1130A60FF91EF91BF91AF919F918F917F916F9182
S1130A705F914F913F912F910F900BBE0F9009BE44
S1130A800F9008BE0F900FBE0F901F9018951F92E5
S1130A900F920FB60F92112408B60F9218BE09B622
S1130AA00F9219BE0BB60F921BBE2F933F934F9319
S1130AB05F936F937F938F939F93AF93BF93EF93C2
S1130AC0FF93E0910622F0910722309709F01995DF
S1130AD0FF91EF91BF91AF919F918F917F916F9112
S1130AE05F914F913F912F910F900BBE0F9009BED4
S1130AF00F9008BE0F900FBE0F901F9018951F9275
S1130B000F920FB60F92112408B60F9218BE09B6B1
S1130B100F9219BE0BB60F921BBE2F933F934F93A8
S1130B205F936F937F938F939F93AF93BF93EF9351
S1130B30FF93E0910422F0910522309709F0199572
S1130B40FF91EF91BF91AF919F918F917F916F91A1
S1130B505F914F913F912F910F900BBE0F9009BE63
S1130B600F9008BE0F900FBE0F901F9018951F9204
S1130B700F920FB60F92112408B60F9218BE09B641
S1130B800F9219BE0BB60F921BBE2F933F934F9338
S1130B905F936F937F938F939F93AF93BF93EF93E1
S1130BA0FF93E0910222F0910322309709F0199506
S1130BB0FF91EF91BF91AF919F918F917F916F9131
S1130BC05F914F913F912F910F900BBE0F9009BEF3
S1130BD00F9008BE0F900FBE0F901F9018951F9294
S1130BE00F920FB60F92112408B60F9218BE09B6D1
S1130BF00F9219BE0BB60F921BBE2F933F934F93C8
S1130C005F936F937F938F939F93AF93BF93EF9370
S1130C10FF93E0910022F0910122309709F0199599
S1130C20FF91EF91BF91AF919F918F917F916F91C0
S1130C305F914F913F912F910F900BBE0F9009BE82
S1130C400F9008BE0F900FBE0F901F9018951F9223
S1130C500F920FB60F92112408B60F9218BE09B660
S1130C600F9219BE0BB60F921BBE2F933F934F9357
S1130C705F936F937F938F939F93AF93BF93EF9300
S1130C80FF93E091FE21F091FF21309709F019952F
S1130C90FF91EF91BF91AF919F918F917F916F9150
S1130CA05F914F913F912F910F900BBE0F9009BE12
S1130CB00F9008BE0F900FBE0F901F9018951F92B3
S1130CC00F920FB60F92112408B60F9218BE09B6F0
S1130CD00F9219BE0BB60F921BBE2F933F934F93E7
S1130CE05F936F937F938F939F93AF93BF93EF9390
S1130CF0FF93E091FC21F091FD21309709F01995C3
S1130D00FF91EF91BF91AF919F918F917F916F91DF
S1130D105F914F913F912F910F900BBE0F9009BEA1
S1130D200F9008BE0F900FBE0F901F9018951F9242
S1130D300F920FB60F92112408B60F9218BE09B67F
S1130D400F9219BE0BB60F921BBE2F933F934F9376
S1130D505F936F937F938F939F93AF93BF93EF931F
S1130D60FF93E091FA21F091FB21309709F0199556
S1130D70FF91EF91BF91AF919F918F917F916F916F
S1130D805F914F913F912F910F900BBE0F9009BE31
S1130D900F9008BE0F900FBE0F901F9018951F92D2
S1130DA00F920FB60F92112408B60F9218BE09B60F
S1130DB00F9219BE0BB60F921BBE2F933F934F9306
S1130DC05F936F937F938F939F93AF93BF93EF93AF
S1130DD0FF93E091F821F091F921309709F01995EA
S1130DE0FF91EF91BF91AF919F918F917F916F91FF
S1130DF05F914F913F912F910F900BBE0F9009BEC1
S1130E000F9008BE0F900FBE0F901F9018951F9261
S1130E100F920FB60F92112408B60F9218BE09B69E
S1130E200F9219BE0BB60F921BBE2F933F934F9395
S1130E305F936F937F938F939F93AF93BF93EF933E
S1130E40FF93E091F621F091F721309709F019957D
S1130E50FF91EF91BF91AF919F918F917F916F918E
S1130E605F914F913F912F910F900BBE0F9009BE50
S1130E700F9008BE0F900FBE0F901F9018951F92F1
S1130E800F920FB60F92112408B60F9218BE09B62E
S1130E900F9219BE0BB60F921BBE2F933F934F9325
S1130EA05F936F937F938F939F93AF93BF93EF93CE
S1130EB0FF93E091F421F091F521309709F0199511
S1130EC0FF91EF91BF91AF919F918F917F916F911E
S1130ED05F914F913F912F910F900BBE0F9009BEE0
S1130EE00F9008BE0F900FBE0F901F9018951F9281
S1130EF00F920FB60F92112408B60F9218BE09B6BE
S1130F000F9219BE0BB60F921BBE2F933F934F93B4
S1130F105F936F937F938F939F93AF93BF93EF935D
S1130F20FF93E091F221F091F321309709F01995A4
S1130F30FF91EF91BF91AF919F918F917F916F91AD
S1130F405F914F913F912F910F900BBE0F9009BE6F
S1130F500F9008BE0F900FBE0F901F9018951F9210
S1130F600F920FB60F92112408B60F9218BE09B64D
S1130F700F9219BE0BB60F921BBE2F933F934F9344
S1130F805F936F937F938F939F93AF93BF93EF93ED
S1130F90FF93E091F021F091F121309709F0199538
S1130FA0FF91EF91BF91AF919F918F917F916F913D
S1130FB05F914F913F912F910F900BBE0F9009BEFF
S1130FC00F9008BE0F900FBE0F901F9018951F92A0
S1130FD00F920FB60F92112408B60F9218BE09B6DD
S1130FE00F9219BE0BB60F921BBE2F933F934F93D4
S1130FF05F936F937F938F939F93AF93BF93EF937D
S1131000FF93E091EE21F091EF21309709F01995CB
S1131010FF91EF91BF91AF919F918F917F916F91CC
S11310205F914F913F912F910F900BBE0F9009BE8E
S11310300F9008BE0F900FBE0F901F9018951F922F
S11310400F920FB60F92112408B60F9218BE09B66C
S11310500F9219BE0BB60F921BBE2F933F934F9363
S11310605F936F937F938F939F93AF93BF93EF930C
S1131070FF93E091EC21F091ED21309709F019955F
S1131080FF91EF91BF91AF919F918F917F916F915C
S11310905F914F913F912F910F900BBE0F9009BE1E
S11310A00F9008BE0F900FBE0F901F9018951F92BF
S11310B00F920FB60F92112408B60F9218BE09B6FC
S11310C00F9219BE0BB60F921BBE2F933F934F93F3
S11310D05F936F937F938F939F93AF93BF93EF939C
S11310E0FF93E091EA21F091EB21309709F01995F3
S11310F0FF91EF91BF91AF919F918F917F916F91EC
S11311005F914F913F912F910F900BBE0F9009BEAD
S11311100F9008BE0F900FBE0F901F9018951F924E
S11311200F920FB60F92112408B60F9218BE09B68B
S11311300F9219BE0BB60F921BBE2F933F934F9382
S11311405F936F937F938F939F93AF93BF93EF932B
S1131150FF93E091E821F091E921309709F0199586
S1131160FF91EF91BF91AF919F918F917F916F917B
S11311705F914F913F912F910F900BBE0F9009BE3D
S11311800F9008BE0F900FBE0F901F9018951F92DE
S11311900F920FB60F92112408B60F9218BE09B61B
S11311A00F9219BE0BB60F921BBE2F933F934F9312
S11311B05F936F937F938F939F93AF93BF93EF93BB
S11311C0FF93E091E621F091E721309709F019951A
S11311D0FF91EF91BF91AF919F918F917F916F910B
S11311E05F914F913F912F910F900BBE0F9009BECD
S11311F00F9008BE0F900FBE0F901F9018951F926E
S11312000F920FB60F92112408B60F9218BE09B6AA
S11312100F9219BE0BB60F921BBE2F933F934F93A1
S11312205F936F937F938F939F93AF93BF93EF934A
S1131230FF93E091E421F091E521309709F01995AD
S1131240FF91EF91BF91AF919F918F917F916F919A
S11312505F914F913F912F910F900BBE0F9009BE5C
S11312600F9008BE0F900FBE0F901F9018951F92FD
S11312700F920FB60F92112408B60F9218BE09B63A
S11312800F9219BE0BB60F921BBE2F933F934F9331
S11312905F936F937F938F939F93AF93BF93EF93DA
S11312A0FF93E091E221F091E321309709F0199541
S11312B0FF91EF91BF91AF919F918F917F916F912A
S11312C05F914F913F912F910F900BBE0F9009BEEC
S11312D00F9008BE0F900FBE0F901F9018951F928D
S11312E00F920FB60F92112408B60F9218BE09B6CA
S11312F00F9219BE0BB60F921BBE2F933F934F93C1
S11313005F936F937F938F939F93AF93BF93EF9369
S1131310FF93E091E021F091E121309709F01995D4
S1131320FF91EF91BF91AF919F918F917F916F91B9
S11313305F914F913F912F910F900BBE0F9009BE7B
S11313400F9008BE0F900FBE0F901F9018951F921C
S11313500F920FB60F92112408B60F9218BE09B659
S11313600F9219BE0BB60F921BBE2F933F934F9350
S11313705F936F937F938F939F93AF93BF93EF93F9
S1131380FF93E091DE21F091DF21309709F0199568
S1131390FF91EF91BF91AF919F918F917F916F9149
S11313A05F914F913F912F910F900BBE0F9009BE0B
S11313B00F9008BE0F900FBE0F901F9018951F92AC
S11313C00F920FB60F92112408B60F9218BE09B6E9
S11313D00F9219BE0BB60F921BBE2F933F934F93E0
S11313E05F936F937F938F939F93AF93BF93EF9389
S11313F0FF93E091DC21F091DD21309709F01995FC
S1131400FF91EF91BF91AF919F918F917F916F91D8
S11314105F914F913F912F910F900BBE0F9009BE9A
S11314200F9008BE0F900FBE0F901F9018951F923B
S11314300F920FB60F92112408B60F9218BE09B678
S11314400F9219BE0BB60F921BBE2F933F934F936F
S11314505F936F937F938F939F93AF93BF93EF9318
S1131460FF93E091DA21F091DB21309709F019958F
S1131470FF91EF91BF91AF919F918F917F916F9168
S11314805F914F913F912F910F900BBE0F9009BE2A
S11314900F9008BE0F900FBE0F901F9018951F92CB
S11314A00F920FB60F92112408B60F9218BE09B608
S11314B00F9219BE0BB60F921BBE2F933F934F93FF
S11314C05F936F937F938F939F93AF93BF93EF93A8
S11314D0FF93E091D821F091D921309709F0199523
S11314E0FF91EF91BF91AF919F918F917F916F91F8
S11314F05F914F913F912F910F900BBE0F9009BEBA
S11315000F9008BE0F900FBE0F901F9018951F925A
S11315100F920FB60F92112408B60F9218BE09B697
S11315200F9219BE0BB60F921BBE2F933F934F938E
S11315305F936F937F938F939F93AF93BF93EF9337
S1131540FF93E091D621F091D721309709F01995B6
S1131550FF91EF91BF91AF919F918F917F916F9187
S11315605F914F913F912F910F900BBE0F9009BE49
S11315700F9008BE0F900FBE0F901F9018951F92EA
S11315800F920FB60F92112408B60F9218BE09B627
S11315900F9219BE0BB60F921BBE2F933F934F931E
S11315A05F936F937F938F939F93AF93BF93EF93C7
S11315B0FF93E091D421F091D521309709F019954A
S11315C0FF91EF91BF91AF919F918F917F916F9117
S11315D05F914F913F912F910F900BBE0F9009BED9
S11315E00F9008BE0F900FBE0F901F9018951F927A
S11315F00F920FB60F92112408B60F9218BE09B6B7
S11316000F9219BE0BB60F921BBE2F933F934F93AD
S11316105F936F937F938F939F93AF93BF93EF9356
S1131620FF93E091D221F091D321309709F01995DD
S1131630FF91EF91BF91AF919F918F917F916F91A6
S11316405F914F913F912F910F900BBE0F9009BE68
S11316500F9008BE0F900FBE0F901F9018951F9209
S11316600F920FB60F92112408B60F9218BE09B646
S11316700F9219BE0BB60F921BBE2F933F934F933D
S11316805F936F937F938F939F93AF93BF93EF93E6
S1131690FF93E091D021F091D121309709F0199571
S11316A0FF91EF91BF91AF919F918F917F916F9136
S11316B05F914F913F912F910F900BBE0F9009BEF8
S11316C00F9008BE0F900FBE0F901F9018951F9299
S11316D00F920FB60F92112408B60F9218BE09B6D6
S11316E00F9219BE0BB60F921BBE2F933F934F93CD
S11316F05F936F937F938F939F93AF93BF93EF9376
S1131700FF93E091CE21F091CF21309709F0199504
S1131710FF91EF91BF91AF919F918F917F916F91C5
S11317205F914F913F912F910F900BBE0F9009BE87
S11317300F9008BE0F900FBE0F901F9018951F9228
S11317400F920FB60F92112408B60F9218BE09B665
S11317500F9219BE0BB60F921BBE2F933F934F935C
S11317605F936F937F938F939F93AF93BF93EF9305
S1131770FF93E091CC21F091CD21309709F0199598
S1131780FF91EF91BF91AF919F918F917F916F9155
S11317905F914F913F912F910F900BBE0F9009BE17
S11317A00F9008BE0F900FBE0F901F9018951F92B8
S11317B00F920FB60F92112408B60F9218BE09B6F5
S11317C00F9219BE0BB60F921BBE2F933F934F93EC
S11317D05F936F937F938F939F93AF93BF93EF9395
S11317E0FF93E091CA21F091CB21309709F019952C
S11317F0FF91EF91BF91AF919F918F917F916F91E5
S11318005F914F913F912F910F900BBE0F9009BEA6
S11318100F9008BE0F900FBE0F901F9018951F9247
S11318200F920FB60F92112408B60F9218BE09B684
S11318300F9219BE0BB60F921BBE2F933F934F937B
S11318405F936F937F938F939F93AF93BF93EF9324
S1131850FF93E091C821F091C921309709F01995BF
S1131860FF91EF91BF91AF919F918F917F916F9174
S11318705F914F913F912F910F900BBE0F9009BE36
S11318800F9008BE0F900FBE0F901F9018951F92D7
S11318900F920FB60F92112408B60F9218BE09B614
S11318A00F9219BE0BB60F921BBE2F933F934F930B
S11318B05F936F937F938F939F93AF93BF93EF93B4
S11318C0FF93E091C621F091C721309709F0199553
S11318D0FF91EF91BF91AF919F918F917F916F9104
S11318E05F914F913F912F910F900BBE0F9009BEC6
S11318F00F9008BE0F900FBE0F901F9018951F9267
S11319000F920FB60F92112408B60F9218BE09B6A3
S11319100F9219BE0BB60F921BBE2F933F934F939A
S11319205F936F937F938F939F93AF93BF93EF9343
S1131930FF93E091C421F091C521309709F01995E6
S1131940FF91EF91BF91AF919F918F917F916F9193
S11319505F914F913F912F910F900BBE0F9009BE55
S11319600F9008BE0F900FBE0F901F9018951F92F6
S11319700F920FB60F92112408B60F9218BE09B633
S11319800F9219BE0BB60F921BBE2F933F934F932A
S11319905F936F937F938F939F93AF93BF93EF93D3
S11319A0FF93E091C221F091C321309709F019957A
S11319B0FF91EF91BF91AF919F918F917F916F9123
S11319C05F914F913F912F910F900BBE0F9009BEE5
S11319D00F9008BE0F900FBE0F901F9018951F9385
S11319E0CF93DF931F921F92CDB7DEB72FB72A8311
S11319F0F8941A81282F392F211588E0380749F4E3
S1131A0061E083E00E94590264E083E00E9459028D
S1131A105CC0203488E0380749F462E083E00E9427
S1131A20590264E083E00E9459024FC0211589E005
S1131A30380749F461E084E00E94590264E084E0DC
S1131A400E94590242C0203489E0380749F462E018
S1131A5084E00E94590264E084E00E94590235C087
S1131A6021158AE0380749F461E085E00E945902B3
S1131A7064E085E00E94590228C020348AE03807D7
S1131A8049F462E085E00E94590264E085E00E9426
S1131A9059021BC021158BE0380749F461E086E048
S1131AA00E94590264E086E00E9459020EC020346C
S1131AB03B4049F462E086E00E94590264E086E01B
S1131AC00E94590202C01FBF10C0809132258F3F6F
S1131AD009F4FFCF8FB78983F8949981E1E3F5E2A4
S1131AE081818F5F81839FBF1FBF0F900F90DF9114
S1131AF0CF911F910895811528E0920729F46093EE
S1131B000E2270930F220895803428E0920729F45E
S1131B1060930422709305220895811529E09207A9
S1131B2029F46093FC217093FD210895803429E009
S1131B30920729F46093F0217093F121089581159F
S1131B402AE0920729F46093E8217093E92108952B
S1131B5080342AE0920729F46093DC217093DD211C
S1131B60089581152BE0920729F46093D421709392
S1131B70D521089580349B4021F46093C82170934B
S1131B80C9210895CF93DF93E0911022F09111229F
S1131B90848183FF08C08860848383E0838386EF25
S1131BA080931A2283C0982F947131F083E0838349
S1131BB08FEF80931A227AC086FF43C0C0E1D2E23D
S1131BC0AA81BB818C819D8114962D913C9115979E
S1131BD0821793076CF49C012F5F3F4F20931422CC
S1131BE030931522A80FB91F11968C9187835EC07C
S1131BF0809116229091172218962D913C91199755
S1131C0082179307C8F420911822222321F0868199
S1131C10816086834BC016962D913C911797AC0139
S1131C204F5F5F4F4093162250931722D901A80F9C
S1131C30B91F8C9187833AC083E0838310921A2260
S1131C4035C0882384F5A0E1B2E21296CD91DC91EF
S1131C50139716968D919C9117972885398582172D
S1131C609307D8F46E817F819C012F5F3F4F2093AF
S1131C701622309317224781DB01A80FB91F4C931A
S1131C80888599852817390718F482E083830EC064
S1131C9087E0838310921A2209C083E0838389EF4B
S1131CA080931A2203C08BEF80931A22DF91CF9185
S1131CB008951F920F920FB60F92112408B60F9237
S1131CC018BE09B60F9219BE0BB60F921BBE2F9306
S1131CD03F934F935F936F937F938F939F93AF93B0
S1131CE0BF93EF93FF934EDFFF91EF91BF91AF91BD
S1131CF09F918F917F916F915F914F913F912F9120
S1131D000F900BBE0F9009BE0F9008BE0F900FBE30
S1131D100F901F9018951F920F920FB60F921124D7
S1131D2008B60F9218BE09B60F9219BE0BB60F92E1
S1131D301BBE2F933F934F935F936F937F938F9328
S1131D409F93AF93BF93EF93FF931CDFFF91EF91AA
S1131D50BF91AF919F918F917F916F915F914F91BF
S1131D603F912F910F900BBE0F9009BE0F9008BEAC
S1131D700F900FBE0F901F9018951F920F920FB6E1
S1131D800F92112408B60F9218BE09B60F9219BE0D
S1131D900BB60F921BBE2F933F934F935F936F939A
S1131DA07F938F939F93AF93BF93EF93FF93EADE59
S1131DB0FF91EF91BF91AF919F918F917F916F911F
S1131DC05F914F913F912F910F900BBE0F9009BEE1
S1131DD00F9008BE0F900FBE0F901F9018951F9282
S1131DE00F920FB60F92112408B60F9218BE09B6BF
S1131DF00F9219BE0BB60F921BBE2F933F934F93B6
S1131E005F936F937F938F939F93AF93BF93EF935E
S1131E10FF93B8DEFF91EF91BF91AF919F918F91A6
S1131E207F916F915F914F913F912F910F900BBED6
S1131E300F9009BE0F9008BE0F900FBE0F901F9019
S1131E401895FC01DB0114968C91858388EB8183C2
S1131E5081E08483E0E1F2E211861286E0EAF0E0B8
S1131E60828182608283789480E00895CF93DF93A7
S1131E701F92CDB7DEB79C01FB01892B09F451C039
S1131E80309709F450C0928580911922882319F063
S1131E909923F1F34AC08FB78983F8948981A0E12B
S1131EA0B2E291E019969C93199790E81A969C9344
S1131EB01A978FBF2D933C93119712966D937C9331
S1131EC0139714961D921C92159716961D921C92A8
S1131ED0179718964C938081880F64817581672BBE
S1131EE011F4411103C0F901868303C08160F90133
S1131EF08683E0E1F2E292859038E9F3F901848186
S1131F008370813049F0A0E1B2E2ED91FC91119728
S1131F10848183708130C9F7E0E1F2E28285118621
S1131F2005C088EF03C088EF01C086EF0F90DF91F2
S1131F30CF910895FC01918195FFFDCF608380E0EE
S1131F4090E00895FC0191819923ECF78081089534
S1131F504F925F926F927F928F929F92AF92BF92B5
S1131F60EF92FF920F931F93CF937C014A015B0181
S1131F7028013901FC01848182FF16C0D901C801FE
S1131F80689412F8B695A795979587951694D1F706
S1131F90B901A801032E36E17695679557954795C3
S1131FA03A95D1F7302D15C0D901C801689413F8BA
S1131FB0B695A795979587951694D1F7B901A80179
S1131FC0032E37E176956795579547953A95D1F75E
S1131FD0302D88159905AA05BB0508F4A6C08416FA
S1131FE09506A606B70608F4A2C0F701848182FD0F
S1131FF004C0880C991CAA1CBB1CC301B201A50116
S113200094010E942D3A2F3F31054105510508F4F2
S113201090C08FEF90E0A0E0B0E0C9EF05C02817B2
S113202039074A075B0758F0880F991FAA1FBB1F7F
S1132030CD3F0CF48160CF5FC73089F74FC0CC230C
S11320400CF04CC0D501C401880F991FAA1FBB1FF7
S1132050880F991FAA1FBB1F880F991FAA1FBB1F98
S1132060481A590A6A0A7B0ACE3FF4F48DEF9FEFAF
S11320708C1B9109C7FD939504C0440C551C661C28
S1132080771C8A95D2F7D501C401B695A795979583
S11320908795BC01CD01640D751D861D971DA50195
S11320A094010E942D3A37C083E08C0FA50194015E
S11320B004C0220F331F441F551F8A95D2F7DA013B
S11320C0C901B695A79597958795BC01CD01640D77
S11320D0751D861D971D0E942D3A1DC083E08C0F2F
S11320E0A501940104C0220F331F441F551F8A9574
S11320F0D2F7DA01C901B695A79597958795BC01E2
S1132100CD01640D751D861D971D0E942D3A215029
S1132110310941095109832F8F70C295C07FC82BA3
S1132120F701C783268381E018C080E016C080E0F1
S113213014C0D501C401880F991FAA1FBB1F880FA3
S1132140991FAA1FBB1F880F991FAA1FBB1F481ADC
S1132150590A6A0A7B0AC9EF89CFCF911F910F915F
S1132160FF90EF90BF90AF909F908F907F906F9073
S11321705F904F9008950F931F93CF93DF93EC01DB
S11321808B01009709F45DC1803C910529F460E15D
S113219080E00E94590255C1C03484E0D80729F474
S11321A068E080E00E9459024CC1C115E4E0DE07FA
S11321B029F464E080E00E94590243C1C038F1E090
S11321C0DF0729F462E080E00E9459023AC1C11598
S11321D081E0D80729F461E080E00E94590231C10E
S11321E0C038E3E0DE0729F461E081E00E9459028F
S11321F028C1C039F3E0DF0729F461E082E00E94DE
S113220059021FC1C11582E0D80729F462E081E0B8
S11322100E94590216C1C034E2E0DE0729F462E0EC
S113222082E00E9459020DC1C115F3E0DF0729F4D1
S113223064E081E00E94590204C1C03283E0D807FF
S113224029F464E082E00E945902FBC0C115E8E071
S1132250DE0729F461E083E00E945902F2C0C1154F
S1132260F9E0DF0729F461E084E00E945902E9C043
S1132270C1158AE0D80729F461E085E00E9459027B
S1132280E0C0C115EBE0DE0729F461E086E00E94BE
S11322905902D7C0C034F8E0DF0729F462E083E0D4
S11322A00E945902CEC0C03489E0D80729F462E004
S11322B084E00E945902C5C0C034EAE0DE0729F474
S11322C062E085E00E945902BCC0C034FBE0DF0735
S11322D029F462E086E00E945902B3C0C03988E064
S11322E0D80729F464E083E00E945902AAC0C039E7
S11322F0E9E0DE0729F464E084E00E945902A1C009
S1132300C039FAE0DF0729F464E085E00E9459024D
S113231098C0C0398BE0D80729F464E086E00E94B5
S113232059028FC0C03CE8E0DE0729F468E083E08E
S11323300E94590286C0C03CF9E0DF0729F468E036
S113234084E00E9459027DC0C03C8AE0D80729F489
S113235068E085E00E94590274C0C03CEBE0DE07EF
S113236029F468E086E00E9459026BC0C03AF8E0A4
S1132370DF0729F460E183E00E94590262C0C03A99
S113238089E0D80729F460E184E00E94590259C029
S1132390C03AEAE0DE0729F460E185E00E945902D0
S11323A050C0C03AFBE0DF0729F460E186E00E94F8
S11323B0590247C0C03B88E0D80729F460E283E0B3
S11323C00E9459023EC0C03BE9E0DE0729F460E206
S11323D084E00E94590235C0C03BFAE0DF0729F4CB
S11323E060E285E00E9459022CC0C03B8BE0D80714
S11323F029F460E286E00E94590223C0C038E4E078
S1132400DE0729F460E483E00E9459021AC0C0394F
S1132410F4E0DF0729F460E484E00E94590211C06B
S1132420C03A84E0D80729F460E485E00E945902A8
S113243008C0C03BE4E0DE0721F460E486E00E94CB
S113244059028D818F738D83F80195818481892B45
S11324509681911198E0892B8D83F80140815181F7
S11324606281738100E018E428EE31E0CE0170DD72
S11324709C8198609C839C8190619C83DF91CF9127
S11324801F910F9108959091800024E0829FB001E4
S113249011246C7392709160692B80E890E00E9423
S11324A05704E0E8F0E0828180FDFDCF089560915B
S11324B080006C73636080E890E00E945704E0E859
S11324C0F0E0828180FDFDCF089563E080E890E034
S11324D00E945704E0E8F0E0828180FDFDCF6BE2CA
S11324E081E890E00E945704E0E8F0E0828180FDFA
S11324F0FDCFA895FFCFCF92DF92EF92FF92CF93BB
S1132500DF93EC016B01E12CF12C60E078E488EEC0
S113251091E0A70196010E942D3ACA01B9012FEF5B
S11325203FEF40E050E00E942D3A2115310529F497
S113253081E08C8321E030E02DC02230310528F485
S113254082E08C8322E030E025C02430310528F479
S113255083E08C8324E030E01DC02830310528F46A
S113256084E08C8328E030E015C02034310528F461
S113257085E08C8320E430E00DC02F3F310509F065
S113258028F486E08C8320E031E004C087E08C836B
S113259020E034E040E050E060E078E488EE91E050
S11325A00E942D3ACA01B901A70196010E942D3A51
S11325B02D833E832436310518F41C821D821E822D
S11325C0DF91CF91FF90EF90DF90CF9008950F931C
S11325D01F93CF93DF93EC018901862F90E088301D
S11325E0910508F09EC0FC018827E250FF4F8F4FF1
S11325F00C944F3A80E098E088839983E0E4F6E015
S1132600308181E090E02FEF240F02C0880F991FE2
S11326102A95E2F7832B808384C080E498E0888342
S11326209983E0E4F6E0308181E090E023E0240F38
S113263002C0880F991F2A95E2F7832B808371C00B
S113264080E099E088839983E0E6F6E0308181E0D8
S113265090E02FEF240F02C0880F991F2A95E2F70C
S1132660832B80835EC080E499E088839983E0E6CD
S1132670F6E0308181E090E023E0240F02C0880F6F
S1132680991F2A95E2F7832B80834BC080E09AE060
S113269088839983E0E8F6E0308181E090E02FEFD1
S11326A0240F02C0880F991F2A95E2F7832B808399
S11326B038C080E49AE088839983E0E8F6E03081CA
S11326C081E090E023E0240F02C0880F991F2A952F
S11326D0E2F7832B808325C080E09BE08883998385
S11326E0E0EAF6E0308181E090E02FEF240F02C0B1
S11326F0880F991F2A95E2F7832B808312C080E408
S11327009BE088839983E0EAF6E0308181E090E001
S113271023E0240F02C0880F991F2A95E2F7832B28
S113272080834A83423061F018F4413031F010C0A4
S1132730433049F0443051F00BC080E18B8308C032
S113274080E28B8305C080E48B8302C080E88B83A6
S11327508881998144D9E881F9818181887F836066
S113276081831D821E821C82E881F9818081807FA1
S11327708083B801CE01BFDEDF91CF911F910F910D
S11327800895CF93DF93EC012D813E81A62FB0E015
S11327900E94583A24E630E040E050E00E942D3A8E
S11327A08A81E881F981E6FD17C0823061F018F46E
S11327B0813031F01BC0833049F0843051F016C0B1
S11327C020AF31AF13C022AF33AF10C024AF35AF49
S11327D00DC026AF37AF0AC0813019F0823021F026
S11327E005C020AF31AF02C022AF33AF8D819E81CF
S11327F0E881F98186A397A38B81E881F981E6FDBD
S113280004C09181892B818304C091818073892BB9
S11328108183E881F9818081807F9C81892B8083F9
S1132820DF91CF91089510921B2208951F93CF93A7
S1132830DF93162FD42F8C3038F0883139F08C3058
S113284041F08C5031E006C030E004C030E08CE050
S113285001C031E0CDEC8C9F412D1124242F26950D
S113286026952695422F440F942F990F990F940F74
S1132870891B982F9064832F8295880F807E892BE3
S113288090E1299FA0011124482B62E088E60E9470
S1132890692F1C9F812D112486958695869590E13C
S11328A0899FA0011124880F982F990F990F890FE0
S11328B0181B412B61E088E60E94692FDC9FC12D23
S11328C01124C695C695C69580E1C89FA001112420
S11328D0CC0F8C2F880F880FC80FDC1B4D2B60E0AA
S11328E088E60E94692FDF91CF911F91089510927D
S11328F01B2240E06EE088E60E94692F40E06FE012
S113290088E60E94692FE0E6F6E082E0808B81E0B1
S1132910838781858C60818740E06AE383E086CF8A
S11329200895CF93DF93EC012CE132E243E060E0C1
S113293088E60E947A2FECE1F2E222819181808183
S113294024FB332730F9330F432F440F440F340F44
S1132950422F4F70340F3883392F3695369536957C
S11329603E71432F440F440F340F9F70930F99838C
S1132970982F9695969596959E71392F330F330F10
S1132980930F8F70890F8A8325FB222720F92B83CD
S1132990DF91CF91089580911B2208951F920F9289
S11329A00FB60F92112408B60F9218BE8F9381E0D0
S11329B080931B228F910F9008BE0F900FBE0F9033
S11329C01F901895FC011282A081B1811C9282E0B3
S11329D0838308950F931F93CF93DF9388E190E24D
S11329E00E94E22E9F938F938EE190E29F938F93A8
S11329F088E08F9380EA8F93E0913D25F0913E2506
S1132A001995CCE3D2E204E612E20F900F900F90F6
S1132A100F900F900F90CE01D5DF2496C017D107E9
S1132A20D1F7E6E4F9E280E895E2A0E0B0E0808343
S1132A309183A283B38381E08683158283E08483B8
S1132A40BF0180EB98E097DB82E290E29F938F9343
S1132A50D8E0DF93C0EBCF93E0913D25F0913E2584
S1132A60199585E390E29F938F93DF93CF93E09141
S1132A703D25F0913E25199586E490E29F938F932E
S1132A80DF93CF93E0913D25F0913E2519958AE798
S1132A9090E29F938F93DF93CF93E0913D25F09144
S1132AA03E25199584E990E29F938F93DF93CF930A
S1132AB0E0913D25F0913E251995E0EBF8E0838106
S1132AC08F7C806283838DB79EB744968DBF9EBFF3
S1132AD0DF91CF911F910F9108951F920F920FB61E
S1132AE00F92112408B60F9218BE09B60F9219BEA0
S1132AF00BB60F921BBE2F933F934F935F936F932D
S1132B007F938F939F93AF93BF93EF93FF9380EB48
S1132B1098E018DA80934529FF91EF91BF91AF9126
S1132B209F918F917F916F915F914F913F912F91E1
S1132B300F900BBE0F9009BE0F9008BE0F900FBEF2
S1132B400F901F90189504C0615071098109910973
S1132B506115710581059105B9F7089548E066E6A8
S1132B6072E286EA92E20E949D2D48E066E872E2F3
S1132B708BEA92E20E949D2D1092652210926422AB
S1132B8044E066E280E60E94692F2BEB32E241E0EA
S1132B9066E280E60E947A2F8091BB2282FDF5CF07
S1132BA047E063E180E60E94692F40E268E280E644
S1132BB00E94692F40E869E280E60E94692F40E89C
S1132BC06AE280E60E94692F48E966E280E60E9494
S1132BD0692F66E573E288E090E0B5DFE0E6F6E0B1
S1132BE081E3828B84E08287818583608187089575
S1132BF0CF93DF93209164222223E1F0EC018BEA4E
S1132C0092E20E94F82C6D837E838F83988786EAF4
S1132C1092E20E94F82C2091B1223091B22240918C
S1132C20B3225091B4220E94D33169837A838B8377
S1132C309C8309C0FC0111821282138214821582C2
S1132C40168217821086DF91CF91089580916522B4
S1132C500895811106C04AE866E280E60C94692F63
S1132C6008954AE066E280E60C94692F0895CF92B5
S1132C70DF92EF92FF92CF93DF93C0EBD2E26985AC
S1132C807A85072E000C880B990B0E9450336B0138
S1132C907C019B01AC0169817A818B819C810E94BA
S1132CA0B53269837A838B839C83A70196016D81F6
S1132CB07E818F8198850E94B5326D837E838F8358
S1132CC0988721E030E029873A87209364220E9484
S1132CD05C308C818F938B818F938A818F938981D0
S1132CE08F9386EA90E29F938F9388E08F9380EA94
S1132CF08F93E0913D25F0913E2519958DB79EB7B0
S1132D0008968DBF9EBFDF91CF91FF90EF90DF902B
S1132D10CF9008958F929F92AF92BF92CF92DF92FD
S1132D20EF92FF920F931F93CF93DF93109265223C
S1132D302BEB32E246E060E080E60E947A2F80913D
S1132D40BB2283FFDAC0CBEBD2E2B980CA80AB806E
S1132D501C810D819E0141E066E280E60E947A2F8B
S1132D60888188231CF56C2D70E07B29072E000CCC
S1132D70880B990B0E9450336B017C01CA2DC295BC
S1132D80CF706C2F70E080E090E00E94503320E020
S1132D9030E040E85DE30E94A1349B01AC01C7012F
S1132DA0B6010E94D4316B017C012FC0D12CE12CDF
S1132DB0F12CFE2CED2CDC2CCC24EB28CA28CA2DBB
S1132DC0C073C295CF706C2F70E080E090E00E94D9
S1132DD04E3320E030E040E85EE30E94A1344B0132
S1132DE05C01C701B601689415F8959587957795A8
S1132DF067951694D1F70E9450339B01AC01C5012D
S1132E00B4010E94D4316B017C01A7019601C70172
S1132E10B6010E94B535811172C020E030E0A901ED
S1132E20C701B6010E94B132882309F46AC0D02FC9
S1132E30D295DF706D2F70E080E090E00E945033F7
S1132E4020E030E040E85DE30E94A1344B015C01E6
S1132E50612F70E080E090E00E944E339B01AC0152
S1132E60C501B4010E94D4314B015C019B01AC014A
S1132E700E94B535811147C020E030E0A901C501A9
S1132E80B4010E94B132882309F43FC0C091642286
S1132E90CC2369F0B501A4018BEA92E20E94CE2C06
S1132EA0B701A60186EA92E20E94CE2C31C0C0EBA3
S1132EB0D2E2A701960169817A818B819C810E946B
S1132EC0D43169837A838B839C83A50194016D81BA
S1132ED07E818F8198850E94D4316D837E838F8318
S1132EE0988789859A85019689879A87803891057C
S1132EF074F0CE01BCDEC1E00BC0C0E009C0C0E08C
S1132F0007C0C0E005C0C0E003C0C0E001C0C1E02C
S1132F108C2FDF91CF911F910F91FF90EF90DF9055
S1132F20CF90BF90AF909F908F9008951F920F9273
S1132F300FB60F92112408B60F9218BE8F9381E03A
S1132F40809365228F910F9008BE0F900FBE0F9053
S1132F501F90189504C06150710981099109611588
S1132F60710581059105B9F7089580938924089521
S1132F70809189240895682F70E088EE93E00E9480
S1132F80063A4FEF460F69E189E60C94692F0895DC
S1132F90CF93DF93EC0184E494E20E94F82C6883DD
S1132FA079838A839B8387E194E20E94F82C6C8363
S1132FB07D838E839F838AEE93E20E94F82C688738
S1132FC079878A879B87DF91CF910895CF93DF9389
S1132FD0EC018DEB93E20E94CD2D688379838A8383
S1132FE09B8380E993E20E94CD2D6C837D838E8345
S1132FF09F8383E693E20E94CD2D688779878A8731
S11330009B87DF91CF9108952F923F924F925F92C9
S11330106F927F928F929F92AF92BF92CF92DF92E4
S1133020EF92FF920F931F93CF93DF93CDB7DEB749
S1133030A497CDBFDEBFFC01A080B180C280D38045
S1133040E488F5880689178920893189428953895A
S1133050448455846684778480A191A1A2A1B3A1FC
S1133060B058BF93AF939F938F93878D8F93868D23
S11330708F93858D8F93848D8F93838D8F93828D82
S11330808F93818D8F93808D8F9383858F9382858A
S11330908F9381858F9380858F9387818F9386818A
S11330A08F9385818F9384818F93C301B2010E9492
S11330B0222460910020709101208091022090913F
S11330C00320209100203091012040910220509152
S11330D003208090A4249090A524A090A624B090CE
S11330E0A7244090A4245090A5246090A624709016
S11330F0A724E090A024F090A1240091A224109190
S1133100A324E982FA820B831C83E090A024F0902C
S1133110A1240091A2241091A324ED82FE820F83A6
S11331201887E0909C24F0909D2400919E24109197
S11331309F24E986FA860B871C87E0909C24F090F4
S11331409D2400919E2410919F24ED86FE860F8776
S1133150188BE090A424F090A5240091A62410914B
S1133160A724E98AFA8A0B8B1C8BE090A024F090A8
S1133170A1240091A2241091A324ED8AFE8A0F8B2E
S1133180188FE0900020F09001200091022010910F
S11331900320E9A2FAA20BA31CA3E0909C24F090C4
S11331A09D2400919E2410919F24E98EFA8E0B8F0A
S11331B01C8F0E94A1346B017C01A3019201C50103
S11331C0B4010E94A1349B01AC01C701B6010E9465
S11331D0D4314B015C012D813E814F815885698139
S11331E07A818B819C810E94A1349B01AC01C50131
S11331F0B4010E94D3314B015C012D853E854F857E
S1133200588969857A858B859C850E94A1349B01A8
S1133210AC01C501B4010E94D3312B013C012D89BD
S11332203E894F89588D69897A898B899C890E9446
S1133230A1344B015C01298D3A8D4B8D5C8D69A1C4
S11332407AA18BA19CA10E94A1349B01AC01C50170
S1133250B4010E94D4319B01AC010E94D431A3017A
S113326092010E945E320F2EF6E72F2EF9E23F2ED6
S1133270F02DF10160837183828393836091A42490
S11332807091A5248091A6249091A72420919C2438
S113329030919D2440919E2450919F248090002041
S11332A090900120A0900220B09003204090A02490
S11332B05090A1246090A2247090A3240E94A13471
S11332C06B017C01A3019201C501B4010E94A134E8
S11332D09B01AC01C701B6010E94D3319B01AC0133
S11332E00E94D4310E943832DC01CB01B058809363
S11332F07A2990937B29A0937C29B0937D296091AE
S1133300002070910120809102209091032020914F
S113331000203091012040910220509103208090A0
S1133320A4249090A524A090A624B090A724409013
S1133330A4245090A5246090A6247090A724E09023
S1133340A024F090A1240091A2241091A324E98246
S1133350FA820B831C83E090A024F090A1240091B6
S1133360A2241091A324ED82FE820F831887E0909B
S11333709C24F0909D2400919E2410919F24E98622
S1133380FA860B871C87E0909C24F0909D24009182
S11333909E2410919F24ED86FE860F87188BE09063
S11333A00020F09001200091022010910320E98A6E
S11333B0FA8A0B8B1C8BE090A424F090A524009136
S11333C0A6241091A724ED8AFE8A0F8B188FE09013
S11333D0A024F090A1240091A2241091A324E9A296
S11333E0FAA20BA31CA3E0909C24F0909D240091CE
S11333F09E2410919F24E98EFA8E0B8F1C8F0E94BD
S1133400A1346B017C01A3019201C501B4010E94A6
S1133410A1349B01AC01C701B6010E94D3314B0119
S11334205C012D813E814F81588569817A818B8130
S11334309C810E94A1349B01AC01C501B4010E948E
S1133440D3314B015C012D853E854F8558896985B3
S11334507A858B859C850E94A1349B01AC01C501B2
S1133460B4010E94D4312B013C012D893E894F893E
S1133470588D69897A898B899C890E94A1344B0172
S11334805C01298D3A8D4B8D5C8D69A17AA18BA14C
S11334909CA10E94A1349B01AC01C501B4010E940E
S11334A0D4319B01AC010E94D431A30192010E944A
S11334B05E3260937E2970937F2980938029909354
S11334C0812960917A2970917B2980917C2990913E
S11334D07D292DEE3EE245E652E40E94A13460933C
S11334E07A2970937B2980937C2990937D29F1011B
S11334F060817181828193812DEE3EE245E652E442
S11335000E94A134F101608371838283938360916B
S11335107E2970917F2980918029909181292DEEB7
S11335203EE245E652E40E94A13460937E29709302
S11335307F298093802990938129F10140815181D1
S1133540628173818DEB93E20E94A32D40917A29CD
S113355050917B2960917C2970917D2980E993E2C7
S11335600E94A32D40917E2950917F29609180294A
S11335707091812983E693E20E94A32DCDBFDEBF23
S1133580A496CDBFDEBFDF91CF911F910F91FF9025
S1133590EF90DF90CF90BF90AF909F908F907F90EF
S11335A06F905F904F903F902F900895CF92DF924D
S11335B0EF92FF920F931F93CF93DF9329E434E2AA
S11335C04FE06AE389E60E947A2F8091492480FFC4
S11335D032C1E9E4F4E2818190E0982F88272281C6
S11335E0822B0EE819E2D8018D939C931197838165
S11335F090E0982F88272481822B12968D939C9398
S11336001397858190E0982F88272681822B149622
S11336108D939C931597818590E0982F8827228518
S1133620822B16968D939C931797838590E0982F01
S113363088272485822B18968D939C9319978585CA
S113364090E0982F88272685822B1A968D939C9339
S11336501B976D917C91C0908A29D0908B29E09022
S11336608C29F0908D29072E000C880B990B0E9451
S11336705033A70196010E94A134C2E5D9E26883C0
S113368079838A839B83F80162817381C0908A293C
S1133690D0908B29E0908C29F0908D29072E000C76
S11336A0880B990B0E945033A70196010E94A13404
S11336B06C837D838E839F83D80114966D917C9156
S11336C01597C0908A29D0908B29E0908C29F0908E
S11336D08D29072E000C880B990B0E945033A701EB
S11336E096010E94A134688779878A879B87F801AD
S11336F066817781C0908629D0908729E0908829B7
S1133700F0908929072E000C880B990B0E945033E6
S1133710A70196010E94A1346C877D878E879F87BD
S1133720D80118966D917C911997C0908629D090F4
S11337308729E0908829F0908929072E000C880BAE
S1133740990B0E945033A70196010E94A134688B03
S1133750798B8A8B9B8BF80162857385C09086294F
S1133760D0908729E0908829F0908929072E000CB1
S1133770880B990B0E945033A70196010E94A13433
S11337806C8B7D8B8E8B9F8B188E198E1A8E1B8E55
S11337901C8E1D8E1E8E1F8E18A219A21AA21BA289
S11337A0088519852A853B854C815D816E817F81E1
S11337B088819981AA81BB813F932F931F930F9393
S11337C07F936F935F934F93BF93AF939F938F9325
S11337D08AEB90E29F938F9388E08F9380EA8F9394
S11337E0E0913D25F0913E251995488159816A81E2
S11337F07B8184E494E20E94CE2C4C815D816E81B5
S11338007F8187E194E20E94CE2C488559856A85A0
S11338107B858AEE93E20E94CE2CCE01F5DB29E46F
S113382034E241E06AE389E60E947A2F8DB79EB7BD
S113383040968DBF9EBFDF91CF911F910F91FF9056
S1133840EF90DF90CF90089529E434E241E065E7FA
S113385089E60E947A2F80914924813789F480ED8A
S113386090E29F938F9388E08F9380EA8F93E09107
S11338703D25F0913E2519950F900F900F900F90D4
S11338800895813099F028F08230E9F0833041F1D5
S113389033C080E090E0A0E8B8E380938A29909355
S11338A08B29A0938C29B0938D2926C080E090E0C9
S11338B0A0E0B9E380938A2990938B29A0938C2963
S11338C0B0938D2919C080E090E0A0E8B9E380931B
S11338D08A2990938B29A0938C29B0938D290CC0AD
S11338E080E090E0A0E0BAE380938A2990938B294A
S11338F0A0938C29B0938D2948E16CE189E60C945E
S1133900692F0895813099F028F08230E9F08330EE
S113391041F133C081EA9FE0AAEFBBE3809386299B
S113392090938729A0938829B093892926C081EA96
S11339309FE0AAE7BCE38093862990938729A0930C
S11339408829B093892919C081EA9FE0AAEFBCE3D2
S11339508093862990938729A0938829B0938929F5
S11339600CC080E090E0AAE7BDE3809386299093A1
S11339708729A0938829B093892948E16BE189E6D6
S11339800C94692F08954AE065E973E28DEB93E2A4
S11339900E94722E4AE068E673E280E993E20E9494
S11339A0722E4AE06BE373E283E693E20E94722E86
S11339B04AE06CE174E284E494E20E949D2D4AE0C2
S11339C06FEE73E287E194E20E949D2D4AE062EC7F
S11339D073E28AEE93E20E949D2D40E86BE689E64D
S11339E00E94692F66E573E288E090E0B3DA41E073
S11339F06BE689E60E94692F40E06CE689E60E9446
S1133A00692F66E573E288E090E0A4DA42E06AE1B7
S1133A1089E60E94692F83E075DF83E032DF42E0AC
S1133A206DE189E60E94692F84E6A5DA42E267E344
S1133A3089E60E94692F41E068E389E60E94692FC4
S1133A40E0E0F6E081E1828B84E0828783E0818795
S1133A5008951F920F920FB60F92112408B60F9279
S1133A6018BE8F9381E0809389248F910F9008BEB4
S1133A700F900FBE0F901F901895E0E0F2E080A128
S1133A80806880A30895F9DFE0E0F2E083A1882351
S1133A90E9F3E0E0F2E084A195A1168208958F9203
S1133AA09F92AF92BF92CF92DF92EF92FF92CF9309
S1133AB0C42F0E944E3320E030E44CE156E40E94CF
S1133AC0B5320E9461346B017C019B01AC010E9400
S1133AD0D43122E835ED4FE256E30E94A1344B0184
S1133AE05C0121EF3BEB46E859E3C701B6010E94B4
S1133AF0A1342DE03FEC4BE55BE30E94D4319B0104
S1133B00AC01C501B4010E94D4314B015C0120E039
S1133B1030E040E450E4C701B6010E94A1342AE633
S1133B2033E149E853E30E94A1349B01AC01C50190
S1133B30B4010E94D4319B01AC0160E070E080E8E4
S1133B409FE30E94B532CC2389F023E333E948E8AC
S1133B5053E4C62ED72EE82EF92EC701B6010E94D3
S1133B60D331562F472F382F292F04C0562F472FD4
S1133B70382F292F652F742F832F922FCF91FF90E9
S1133B80EF90DF90CF90BF90AF909F908F9008956B
S1133B90EAE8F4E2108211821282138214821582FE
S1133BA00895FF920F931F93CF93DF938C01F62E0A
S1133BB0CAE8D4E26C817D81072E000C880B990B36
S1133BC00E9450339B01AC01688179818A819B8179
S1133BD00E94B532F8016083718382839383F1106C
S1133BE0D7DFDF91CF911F910F91FF9008954F92EE
S1133BF05F926F927F928F929F92AF92BF92CF9279
S1133C00DF92EF92FF920F931F93CF93DF938C0178
S1133C10181619060CF040C0C0E0D0E0812C912C9D
S1133C20540131DFBC0180E090E00E944E3320E07B
S1133C3030E044E050E40E94A13420E030E040E869
S1133C4059E30E94A1346B017C0120E030E24BE493
S1133C5056E40E94A1342B013C01A701960163E3C1
S1133C6073E383E590E40E94D3319B01AC01C3016B
S1133C70B2010E94B5320E94223341E010DF9B0161
S1133C80AC01C501B4010E94D4314B015C01219601
S1133C900C171D0731F603C0812C912C5401B80177
S1133CA0110F880B990B0E9450339B01AC01C50185
S1133CB0B4010E94B532DF91CF911F910F91FF9013
S1133CC0EF90DF90CF90BF90AF909F908F907F90B8
S1133CD06F905F904F90089584E090E088DF20918A
S1133CE0A0293091A1294091A2295091A3290C9493
S1133CF0D3310895CF93DF931092A0291092A12974
S1133D001092A2291092A329E0E0F2E081E080A3BE
S1133D1011A2C0913D25D0913E25DEDF9F938F9364
S1133D207F936F938CEE90E29F938F9388E08F93B1
S1133D3080EA8F93FE0119958DB79EB708968DBFC3
S1133D409EBFDF91CF9108950F931F93CF93DF937D
S1133D5000E012E081E0F8018083118280E1828337
S1133D6085E0848361E270E082E00E945D04C82FF4
S1133D70D0E0DC2FCC2760E270E082E00E945D049A
S1133D80C82BF801C487D587DF91CF911F910F917C
S1133D9008954F925F926F927F928F929F92AF920B
S1133DA0BF92CF92DF92EF92FF920F931F93CF9324
S1133DB0DF93CDB7DEB7A497CDBFDEBF69877A871F
S1133DC08B879C872D873E874F87588BE98AFA8A91
S1133DD00B8B1C8B20E030E0A901C601B5010E94C9
S1133DE0B132811117C020E030E0A90168AD79AD8E
S1133DF08AAD9BAD0E94B13281110CC020E030E04D
S1133E00A9016CAD7DAD8EAD9FAD0E94B13288230A
S1133E1009F489C2A6019501C601B5010E94A13425
S1133E202B013C0128AD39AD4AAD5BADCA01B901E6
S1133E300E94A1349B01AC01C301B2010E94D431A0
S1133E402B013C012CAD3DAD4EAD5FADCA01B901B6
S1133E500E94A1349B01AC01C301B2010E94D43180
S1133E602B013C0175946794579447941FEDE12E00
S1133E7019E5F12E07E31FE5E418F508060917090B
S1133E8020E030E040E05FE30E94A134A801970104
S1133E900E94A134A80197010E94A1349B01AC01A6
S1133EA060E070E080EC9FE30E94D331A8019701A9
S1133EB00E94A1342B013C019B01AC01C601B50158
S1133EC00E94A13469837A838B839C83A30192012A
S1133ED068AD79AD8AAD9BAD0E94A1346D837E83BC
S1133EE08F839887A30192016CAD7DAD8EAD9FAD9C
S1133EF00E94A1346D8B7E8B8F8B988F6091A4244C
S1133F007091A5248091A6249091A72420919C24AB
S1133F1030919D2440919E2450919F2480900020B4
S1133F2090900120A0900220B09003204090A02403
S1133F305090A1246090A2247090A3240E94A134E4
S1133F406B017C01A3019201C501B4010E94A1345B
S1133F509B01AC01C701B6010E94D331698F7A8FEE
S1133F608B8F9C8F609100207091012080910220A2
S1133F70909103202091A4243091A5244091A6245B
S1133F805091A7248090A0249090A124A090A224D2
S1133F90B090A32440909C2450909D2460909E2433
S1133FA070909F240E94A1346B017C01A3019201B3
S1133FB0C501B4010E94A1349B01AC01C701B60143
S1133FC00E94D4316D8F7E8F8F8F98A360910020D3
S1133FD07091012080910220909103202091002073
S1133FE030910120409102205091032080909C2424
S1133FF090909D24A0909E24B0909F2440909C2457
S113400050909D2460909E2470909F240E94A1341F
S113401020E030E040E05FE30E94D3316B017C019B
S1134020A3019201C501B4010E94A1349B01AC011A
S1134030C701B6010E94D4316B017C019B01AC0124
S11340406D817E818F8198850E94A1344B015C0132
S11340502D8D3E8D4F8D58A16D897E898F89988DC8
S11340600E94A1349B01AC01C501B4010E94D3316B
S113407069A37AA38BA39CA3298D3A8D4B8D5C8D68
S11340806D897E898F89988D0E94A1344B015C01D2
S1134090A701960169817A818B819C810E94A13458
S11340A09B01AC01C501B4010E94D3314B015C01F9
S11340B02D8D3E8D4F8D58A169817A818B819C8194
S11340C00E94A1346B017C01298D3A8D4B8D5C8D4E
S11340D06D817E818F8198850E94A1349B01AC0102
S11340E0C701B6010E94D3316B017C016091A82401
S11340F07091A9248091AA249091AB2420E030E00F
S1134100A9010E94513418160CF0ABC02091A824C8
S11341103091A9244091AA245091AB244090982432
S11341205090992460909A2470909B2469A17AA15C
S11341308BA19CA10E94A1342AEF39EC44E359E3FA
S11341400E94A134A30192010E94D4316093982467
S11341507093992480939A2490939B242091A8246B
S11341603091A9244091AA245091AB2440909424E6
S1134170509095246090962470909724C501B401C2
S11341800E94A1342AEF39EC44E359E30E94A1349C
S1134190A30192010E94D4316093942470939524D6
S11341A080939624909397242091A8243091A92455
S11341B04091AA245091AB24409090245090912493
S11341C06090922470909324C701B6010E94A13498
S11341D02AEF39EC44E359E30E94A134A30192018C
S11341E00E94D431609390247093912480939224FC
S11341F090939324209198243091992440919A2467
S113420050919B2469857A858B859C850E94D43145
S113421069877A878B879C87209194243091952491
S113422040919624509197246D857E858F85988939
S11342300E94D4316D877E878F87988B209190243C
S113424030919124409192245091932469897A89E0
S11342508B899C890E94D431698B7A8B8B8B9C8B44
S113426018C0109298241092992410929A241092B3
S11342709B241092942410929524109296241092C8
S113428097241092902410929124109292241092C8
S113429093242091042030910520409106205091D0
S11342A0072069A17AA18BA19CA10E94A1349B0142
S11342B0AC0169857A858B859C850E94D431698798
S11342C07A878B879C872091042030910520409128
S11342D0062050910720C501B4010E94A1349B011E
S11342E0AC016D857E858F8598890E94D4316D8758
S11342F07E878F87988B20910420309105204091F0
S1134300062050910720C701B6010E94A1349B01E9
S1134310AC0169897A898B899C890E94D431698B23
S11343207A8B8B8B9C8B2AEF39EC44EB58E36985B1
S11343307A858B859C850E94A13469877A878B87CF
S11343409C872AEF39EC44EB58E36D857E858F8595
S113435098890E94A1346D877E878F87988B2AEF76
S113436039EC44EB58E369897A898B899C890E94EA
S1134370A134698B7A8B8B8B9C8BE0900020F0901E
S113438001200091022010910320ED82FE820F8310
S113439018878090A4249090A524A090A624B0907F
S11343A0A724E090A024F090A1240091A2241091CD
S11343B0A324ED8AFE8A0F8B188F40909C24509082
S11343C09D2460909E2470909F24C0900020D090E3
S11343D00120E0900220F0900320C501B401905820
S11343E029853A854B855C850E94A13469837A834B
S11343F08B839C832D893E894F89588D6D857E855D
S11344008F8598890E94A1349B01AC0169817A81CE
S11344108B819C810E94D33169837A838B839C83B3
S1134420A301920169897A898B899C890E94A134AC
S11344309B01AC0169817A818B819C810E94D3317B
S1134440A70196010E94D43160930020709301204B
S1134450809302209093032040909C2450909D24AC
S113446060909E2470909F24C090A424D090A52492
S1134470E090A624F090A7242D813E814F81588599
S113448069857A858B859C850E94A13469837A83AA
S11344908B839C832D893E894F89588D69897A89BC
S11344A08B899C890E94A1349B01AC0169817A812A
S11344B08B819C810E94D43169837A838B839C8312
S11344C0A30192016D857E858F8598890E94A13410
S11344D09B01AC0169817A818B819C810E94D331DB
S11344E0A70196010E94D4316093A4247093A5245B
S11344F08093A6249093A72440909C2450909D24BC
S113450060909E2470909F24C090A024D090A124F9
S1134510E090A224F090A3242D813E814F81588500
S11345206D857E858F8598890E94A13469837A83FD
S11345308B839C83A501940169897A898B899C89E1
S11345400E94A1349B01AC0169817A818B819C8199
S11345500E94D33169837A838B839C83A301920164
S113456069857A858B859C850E94A1349B01AC0169
S113457069817A818B819C810E94D431A701960143
S11345800E94D4316093A0247093A1248093A22428
S11345909093A324C0909C24D0909D24E0909E24CA
S11345A0F0909F242D813E814F81588569897A89B5
S11345B08B899C890E94A1342B013C01A5019401A3
S11345C06D857E858F8598890E94A1349B01AC01FD
S11345D0C301B2010E94D4314B015C012D893E8993
S11345E04F89588D69857A858B859C850E94A13475
S11345F09B01AC01C501B4010E94D331A70196010E
S11346000E94D43160939C2470939D2480939E24B3
S113461090939F246091002070910120809102204A
S1134620909103202091002030910120409102209C
S1134630509103208090A4249090A524A090A624B7
S1134640B090A7244090A4245090A5246090A62460
S11346507090A724E090A024F090A1240091A224BB
S11346601091A324E986FA860B871C87E090A02486
S1134670F090A1240091A2241091A324ED86FE863B
S11346800F87188BE0909C24F0909D2400919E2429
S113469010919F24E982FA820B831C83E0909C246E
S11346A0F0909D2400919E2410919F24E98AFA8A17
S11346B00B8B1C8B0E94A1346B017C01A301920122
S11346C0C501B4010E94A1349B01AC01C701B6012C
S11346D00E94D4314B015C012D853E854F8558895C
S11346E069857A858B859C850E94A1349B01AC01E8
S11346F0C501B4010E94D4314B015C0129893A8976
S11347004B895C8969817A818B819C810E94A13467
S11347109B01AC01C501B4010E94D4314B015C0181
S1134720B594A794979487940F2EFFEDCF2EF9E5B7
S1134730DF2EF7E3EF2EFFE5FF2EF02DC818D90882
S1134740EA08FB0820E030E040E05FE30E94A13487
S1134750A70196010E94A134A70196010E94A134E9
S11347609B01AC0160E070E080EC9FE30E94D331D8
S1134770A70196010E94A1346B017C016091002085
S1134780709101208091022090910320A70196014D
S11347900E94A13460930020709301208093022032
S11347A0909303206091A4247091A5248091A62461
S11347B09091A724A70196010E94A1346093A42498
S11347C07093A5248093A6249093A7246091A02499
S11347D07091A1248091A2249091A324A701960111
S11347E00E94A1346093A0247093A1248093A224F6
S11347F09093A32460919C2470919D2480919E2485
S113480090919F24A70196010E94A13460939C2457
S113481070939D2480939E2490939F24A496CDBF4F
S1134820DEBFDF91CF911F910F91FF90EF90DF904A
S1134830CF90BF90AF909F908F907F906F905F903C
S11348404F9008952F923F924F925F926F927F9272
S11348508F929F92AF92BF92CF92DF92EF92FF928C
S11348600F931F93CF93DF93CDB7DEB7C855D1090C
S1134870CDBFDEBF698B7A8B8B8B9C8B298F3A8F54
S11348804B8F5C8FE982FA820B831C83AF96FFAC5B
S1134890AF97E096EFACE097E1969FACE197E29694
S11348A08FACE297E3961FADE397E4960FADE497E0
S11348B0E5963FACE597E6962FACE69720E030E02E
S11348C0A901EA966CAD7DAD8EAD9FADEA970E94CD
S11348D0B132811135C020E030E0A901EE966CAD13
S11348E07DAD8EAD9FADEE970E94B132811128C08F
S11348F020E030E0A901C258DF4F688179818A81C4
S11349009B81CE57D0400E94B132811119C02F92A1
S11349103F920F931F938F929F92EF92FF92E980A1
S1134920FA800B811C81298D3A8D4B8D5C8D6989B0
S11349307A898B899C892DDACDBFDEBF0C94B32C88
S113494020E030E0A901C601B5010E94B132811115
S113495017C020E030E0A9016F2D7E2D892D982D00
S11349600E94B13281110CC020E030E0A901612F16
S1134970702F832D922D0E94B132882309F489C5AA
S1134980A6019501C601B5010E94A1342B013C0189
S11349902F2D3E2D492D582D6F2D7E2D892D982D8F
S11349A00E94A1349B01AC01C301B2010E94D43125
S11349B02B013C01212F302F432D522D612F702FBD
S11349C0832D922D0E94A1349B01AC01C301B2013D
S11349D00E94D4312B013C017594679457944794F9
S11349E02FED39E547E35FE52419350946095709F1
S11349F029013A0120E030E040E05FE30E94A13465
S1134A00A30192010E94A134A30192010E94A13446
S1134A109B01AC0160E070E080EC9FE30E94D33125
S1134A20A30192010E94A1342B013C019B01AC0122
S1134A30C601B5010E94A1346DAB7EAB8FAB98AFBC
S1134A40A30192016F2D7E2D892D982D0E94A134F2
S1134A5069AF7AAF8BAF9CAFA3019201612F702F26
S1134A60832D922D0E94A13421966CAF7DAF8EAF21
S1134A709FAF2197EA962CAD3DAD4EAD5FADEA9761
S1134A80CA01B9010E94A1346B017C01EE962CADE0
S1134A903DAD4EAD5FADEE97CA01B9010E94A134A0
S1134AA09B01AC01C701B6010E94D4316B017C01AA
S1134AB0C258DF4F288139814A815B81CE57D0406B
S1134AC0CA01B9010E94A1349B01AC01C701B6011E
S1134AD00E94D4318B019C01359527951795079534
S1134AE00F2EFFEDCF2EF9E5DF2EF7E3EF2EFFE5D6
S1134AF0FF2EF02DC01AD10AE20AF30A20E030E0BA
S1134B0040E05FE30E94A134A70196010E94A13412
S1134B10A70196010E94A1349B01AC0160E070E002
S1134B2080EC9FE30E94D331A70196010E94A13437
S1134B306B017C019B01AC01EA966CAD7DAD8EAD41
S1134B409FADEA970E94A1346D837E838F839887FB
S1134B50A7019601EE966CAD7DAD8EAD9FADEE973F
S1134B600E94A13469877A878B879C87A701960165
S1134B70C258DF4F688179818A819B81CE57D040AA
S1134B800E94A1346D877E878F87988B4090002088
S1134B90509001206090022070900320E09000204B
S1134BA0F090012000910220109103206996ECAE50
S1134BB0FDAE0EAF1FAF6997609100207091012088
S1134BC080910220909103202091A4243091A52467
S1134BD04091A6245091A7240E94A13469A37AA3EA
S1134BE08BA39CA3609100207091012080910220EE
S1134BF0909103202091A0243091A1244091A224DB
S1134C005091A3240E94A1346D8F7E8F8F8F98A31F
S1134C1060910020709101208091022090910320E6
S1134C2020919C2430919D2440919E2450919F2456
S1134C300E94A1346D8B7E8B8F8B988FC090A4249F
S1134C40D090A524E090A624F090A7240091A42459
S1134C501091A5242091A6243091A72409AB1AAB66
S1134C602BAB3CAB6091A4247091A5248091A62425
S1134C709091A7242091A0243091A1244091A224B2
S1134C805091A3240E94A13469A77AA78BA79CA75B
S1134C906091A4247091A5248091A6249091A724C6
S1134CA020919C2430919D2440919E2450919F24D6
S1134CB00E94A1346DA77EA78FA798AB6091A02412
S1134CC07091A1248091A2249091A3242091A024E6
S1134CD03091A1244091A2245091A3240E94A13494
S1134CE025966CAF7DAF8EAF9FAF25976091A024C2
S1134CF07091A1248091A2249091A32420919C24BA
S1134D0030919D2440919E2450919F240E94A1346F
S1134D1029966CAF7DAF8EAF9FAF299760919C248D
S1134D2070919D2480919E2490919F2420919C2495
S1134D3030919D2440919E2450919F240E94A1343F
S1134D406DA37EA38FA398A725962CAD3DAD4EAD44
S1134D505FAD259760E070E080E09FE30E94D3316F
S1134D602DA13EA14FA158A50E94D3312D966CAF21
S1134D707DAF8EAF9FAF2D972D893E894F89588D7A
S1134D8069A57AA58BA59CA50E94D33161966CAFC9
S1134D907DAF8EAF9FAF61972DA53EA54FA558A9B6
S1134DA06D8D7E8D8F8D98A10E94D43165966CAFE8
S1134DB07DAF8EAF9FAF65972D962CAD3DAD4EADBB
S1134DC05FAD2D976D817E818F8198850E94A1347E
S1134DD04B015C0161962CAD3DAD4EAD5FAD61976D
S1134DE069857A858B859C850E94A1349B01AC01E1
S1134DF0C501B4010E94D4314B015C0165962CAD10
S1134E003DAD4EAD5FAD65976D857E858F85988987
S1134E100E94A1349B01AC01C501B4010E94D431AC
S1134E209B01AC010E94D4314B015C0129A93AA930
S1134E304BA95CA9C701B6010E94A1349B01AC0136
S1134E4060E070E080E09FE30E94D33169AB7AAB0D
S1134E508BAB9CAB29A53AA54BA55CA56D897E8936
S1134E608F89988D0E94D4312D813E814F81588540
S1134E700E94A1346B017C012DA13EA14FA158A534
S1134E8069A97AA98BA99CA90E94D33129853A855D
S1134E904B855C850E94A1349B01AC01C701B6011E
S1134EA00E94D4316B017C0129A13AA14BA15CA1E0
S1134EB029966CAD7DAD8EAD9FAD29970E94D331FF
S1134EC02D853E854F8558890E94A1349B01AC01F4
S1134ED0C701B6010E94D4319B01AC010E94D431B8
S1134EE06B017C01A5019401C501B4010E94A134A8
S1134EF06D8B7E8B8F8B988FA5019401C501B401B6
S1134F000E94A1344B015C01A7019601C701B601BF
S1134F100E94A1349B01AC01C501B4010E94D431AB
S1134F200E9474354B015C012D8D3E8D4F8D58A12F
S1134F306DA57EA58FA598A90E94D3316D8F7E8F14
S1134F408F8F98A329962CAD3DAD4EAD5FAD2997BB
S1134F5069A17AA18BA19CA10E94D43169A37AA3EF
S1134F608BA39CA325962CAD3DAD4EAD5FAD25978F
S1134F7069A97AA98BA99CA90E94D3316D8B7E8BD8
S1134F808F8B988F2D8D3E8D4F8D58A16D817E8195
S1134F908F8198850E94A1346B017C0129A13AA1DB
S1134FA04BA15CA169857A858B859C850E94A1347F
S1134FB09B01AC01C701B6010E94D4316B017C0195
S1134FC02D893E894F89588D6D857E858F85988979
S1134FD00E94A1349B01AC01C701B6010E94D431E7
S1134FE09B01AC010E94D4316B017C0169962CAD0C
S1134FF03DAD4EAD5FAD6997C301B2010E94A134CE
S113500020E030E040E05FE30E94D3312DA13EA1D7
S11350104FA158A50E94D4316DA37EA38FA398A756
S1135020A50194012D966CAD7DAD8EAD9FAD2D97F0
S11350300E94A1342B013C01A70196016D8D7E8D48
S11350408F8D98A10E94A1349B01AC01C301B201D0
S11350500E94D43169A77AA78BA79CA7A5019401C4
S113506061966CAD7DAD8EAD9FAD61970E94A1340C
S11350702B013C01A701960169A17AA18BA19CA1F6
S11350800E94A1349B01AC01C301B2010E94D4313E
S11350906DA77EA78FA798ABA501940165966CAD0B
S11350A07DAD8EAD9FAD65970E94A1342B013C016F
S11350B0A70196016D897E898F89988D0E94A134FC
S11350C09B01AC01C301B2010E94D4316B017C018C
S11350D02DA13EA14FA158A569AD7AAD8BAD9CAD74
S11350E00E94A1344B015C0129A13AA14BA15CA10E
S11350F021966CAD7DAD8EAD9FAD21970E94A134FC
S11351009B01AC01C501B4010E94D3314B015C0188
S1135110A701960169857A858B859C850E94A134B7
S11351202B013C012DA53EA54FA558A96D857E8573
S11351308F8598890E94A1349B01AC01C301B201FF
S11351400E94D3319B01AC01C501B4010E94D4314A
S11351506D8B7E8B8F8B988F2D8D3E8D4F8D58A1AF
S113516021966CAD7DAD8EAD9FAD21970E94A1348B
S11351704B015C012DA13EA14FA158A56DA97EA9AB
S11351808FA998AD0E94A1349B01AC01C501B40163
S11351900E94D3314B015C0129A53AA54BA55CA51E
S11351A06D857E858F8598890E94A1342B013C01F1
S11351B0A70196016D817E818F8198850E94A1341B
S11351C09B01AC01C301B2010E94D3319B01AC012C
S11351D0C501B4010E94D4314B015C0129A13AA15B
S11351E04BA15CA16DA97EA98FA998AD0E94A134A1
S11351F06B017C012D8D3E8D4F8D58A169AD7AAD2B
S11352008BAD9CAD0E94A1349B01AC01C701B601DA
S11352100E94D3316B017C012DA53EA54FA558A951
S11352206D817E818F8198850E94A1342B013C0180
S113523029A53AA54BA55CA569857A858B859C85AE
S11352400E94A1349B01AC01C301B2010E94D3317D
S11352509B01AC01C701B6010E94D4316B017C01F2
S11352606091A8247091A9248091AA249091AB24E0
S113527020E030E0A9010E94513418160CF0AAC0B5
S11352802091A8243091A9244091AA245091AB24C0
S1135290409098245090992460909A2470909B2474
S11352A06D897E898F89988D0E94A1342AEF39EC0B
S11352B044E359E30E94A134A30192010E94D43132
S11352C0609398247093992480939A2490939B24B8
S11352D02091A8243091A9244091AA245091AB2470
S11352E04090942450909524609096247090972434
S11352F0C501B4010E94A1342AEF39EC44E359E317
S11353000E94A134A30192010E94D4316093942499
S11353107093952480939624909397242091A824A5
S11353203091A9244091AA245091AB244090902418
S1135330509091246090922470909324C701B601F8
S11353400E94A1342AEF39EC44E359E30E94A134CA
S1135350A30192010E94D43160939024709391240C
S113536080939224909393242091982430919924AB
S113537040919A2450919B2469897A898B899C89CC
S11353800E94D431698B7A8B8B8B9C8B20919424D3
S1135390309195244091962450919724698D7A8D6B
S11353A08B8D9C8D0E94D431698F7A8F8B8F9C8FCB
S11353B020919024309191244091922450919324EF
S11353C069817A818B819C81EFD769837A838B830E
S11353D09C8318C0109298241092992410929A24B5
S11353E010929B2410929424109295241092962447
S11353F01092972410929024109291241092922447
S1135400109293242091042030910520409106208D
S1135410509107206D897E898F89988D0E94A134CF
S11354209B01AC0169897A898B899C89BDD7698B79
S11354307A8B8B8B9C8B209104203091052040919A
S1135440062050910720C501B4010E94A1349B019C
S1135450AC01698D7A8D8B8D9C8DA6D7698F7A8FDF
S11354608B8F9C8F20910420309105204091062041
S113547050910720C701B6010E94A1349B01AC01E1
S113548069817A818B819C818FD769837A838B83AD
S11354909C832AEF39EC44EB58E369897A898B8938
S11354A09C890E94A1346D837E838F8398872AEF21
S11354B039EC44EB58E3698D7A8D8B8D9C8D0E9479
S11354C0A13469877A878B879C872AEF39EC44EB70
S11354D058E369817A818B819C810E94A1346D8714
S11354E07E878F87988BE0900020F09001200091B8
S11354F0022010910320E98AFA8A0B8B1C8B80907E
S1135500A4249090A524A090A624B090A724E09071
S1135510A024F090A1240091A2241091A324E98E48
S1135520FA8E0B8F1C8F40909C2450909D24609089
S11355309E2470909F24C0900020D0900120E09081
S11355400220F0900320C501B40190582D813E81C2
S11355504F8158850E94A13469837A838B839C830D
S1135560298D3A8D4B8D5C8D69857A858B859C85DB
S11355700E94A1349B01AC0169817A818B819C8159
S113558012D769837A838B839C83A30192016D85EF
S11355907E858F8598890E94A1349B01AC01698125
S11355A07A818B819C81FFD6A7019601FDD66093F9
S11355B00020709301208093022090930320409058
S11355C09C2450909D2460909E2470909F24C090B1
S11355D0A424D090A524E090A624F090A72429899F
S11355E03A894B895C896D817E818F8198850E947F
S11355F0A13469837A838B839C83298D3A8D4B8D67
S11356005C8D6D857E858F8598890E94A1349B0170
S1135610AC0169817A818B819C81C6D669837A8346
S11356208B839C83A301920169857A858B859C85F4
S11356300E94A1349B01AC0169817A818B819C8198
S1135640B2D6A7019601B0D66093A4247093A52482
S11356508093A6249093A72440909C2450909D244A
S113566060909E2470909F24C090A024D090A12488
S1135670E090A224F090A32429893A894B895C897B
S113568069857A858B859C850E94A13469837A8398
S11356908B839C83A50194016D857E858F85988974
S11356A00E94A1349B01AC0169817A818B819C8128
S11356B07AD669837A838B839C83A30192016D815B
S11356C07E818F8198850E94A1349B01AC01698100
S11356D07A818B819C8168D6A701960165D66093F7
S11356E0A0247093A1248093A2249093A324C09017
S11356F09C24D0909D24E0909E24F0909F2429899E
S11357003A894B895C896D857E858F8598890E944D
S1135710A1342B013C01A501940169857A858B850F
S11357209C850E94A1349B01AC01C301B2013CD60B
S11357304B015C01298D3A8D4B8D5C8D6D817E8191
S11357408F8198850E94A1349B01AC01C501B401ED
S11357502AD6A701960128D660939C2470939D2491
S113576080939E2490939F24609100207091012047
S113577080910220909103202091002030910120FB
S113578040910220509103208090A4249090A5245D
S1135790A090A624B090A7244090A4245090A524BF
S11357A06090A6247090A724E090A024F090A124F7
S11357B00091A2241091A324ED82FE820F83188706
S11357C0E090A024F090A1240091A2241091A3249D
S11357D0E986FA860B871C87E0909C24F0909D2430
S11357E000919E2410919F24E982FA820B831C83EA
S11357F0E0909C24F0909D2400919E2410919F247D
S1135800ED86FE860F87188B0E94A1346B017C0104
S1135810A3019201C501B4010E94A1349B01AC0112
S1135820C701B601C1D54B015C0129853A854B8579
S11358305C856D817E818F8198850E94A1349B0156
S1135840AC01C501B401B0D54B015C012D853E8589
S11358504F85588969817A818B819C810E94A1340A
S11358609B01AC01C501B4019FD58B019C01359509
S11358702795179507950F2EFFEDCF2EF9E5DF2E0F
S1135880F7E3EF2EFFE5FF2EF02DC01AD10AE20A4E
S1135890F30A20E030E040E05FE30E94A134A70176
S11358A096010E94A134A70196010E94A1349B0194
S11358B0AC0160E070E080EC9FE375D5A701960130
S11358C00E94A1346B017C01609100207091012041
S11358D08091022090910320A70196010E94A13497
S11358E06093002070930120809302209093032002
S11358F06091A4247091A5248091A6249091A7245A
S1135900A70196010E94A1346093A4247093A52456
S11359108093A6249093A7246091A0247091A1243D
S11359208091A2249091A324A70196010E94A134FE
S11359306093A0247093A1248093A2249093A32421
S113594060919C2470919D2480919E2490919F2429
S1135950A7019601F6D760939C2470939D248093AD
S11359609E2490939F24C85ADF4FCDBFDEBFDF91A2
S1135970CF911F910F91FF90EF90DF90CF90BF9048
S1135980AF909F908F907F906F905F904F903F90DB
S11359902F90089581E08093AC240895FC018381C5
S11359A0A181B28194E0899FA00DB11D11241D92A3
S11359B01D921D921C9213978381A181B28194E060
S11359C0899FA00DB11D11244D935D936D937C931C
S11359D013972081838190E00196622F70E00E94EA
S11359E01A3A83838481821710F48F5F8483089525
S11359F04F925F926F927F928F929F92AF92BF92DB
S1135A00CF92DF92EF92FF920F931F93CF93DF9386
S1135A10FC01D481DD2309F47CC0B080DB1539F0AE
S1135A20B11053C080E0C12CD12C760163C0018138
S1135A3012817801C0E0912C812CF70141905190A2
S1135A40619071907F01F80184E0989EE00DF11D52
S1135A5011242081318142815381C301B20121D7B4
S1135A6018168CF0F80184E0889EE00DF11D1124D5
S1135A702081318142815381C301B20172D58823CF
S1135A801CF48C2E01C09C2ECF5FDC13D6CFA12C2E
S1135A90B12CC0E0C12CD12C76018C1671F09C166F
S1135AA061F0F801EA0DFB1D2081318142815381AF
S1135AB0C701B60179D46B017C01CF5FE4E0AE0E7F
S1135AC0B11CDC13EACF82E015C001811281C0E071
S1135AD0C12CD12C7601F801219131914191519140
S1135AE08F01C701B60160D46B017C01CF5FBC128A
S1135AF0F2CF80E06D2F70E0681B7109072E000C57
S1135B00880B990BCDD59B01AC01C701B6012DD5EE
S1135B1003C060E070E0CB01DF91CF911F910F9142
S1135B20FF90EF90DF90CF90BF90AF909F908F90B9
S1135B307F906F905F904F900895FC011482408392
S1135B40618372830895FC018381A181B28194E011
S1135B50899FA00DB11D11241D921D921D921C92AE
S1135B6013978381A181B28194E0899FA00DB11D17
S1135B7011244D935D936D937C93139720818381BE
S1135B8090E00196622F70E00E941A3A8383848128
S1135B90821710F48F5F848308954F925F926F92FF
S1135BA07F928F929F92AF92BF92CF92DF92EF92A9
S1135BB0FF920F931F93CF93DF93FC01D481DD23D6
S1135BC009F47CC0B080DB1539F0B11053C080E01B
S1135BD0C12CD12C760163C0018112817801C0E00F
S1135BE0912C812CF70141905190619071907F012B
S1135BF0F80184E0989EE00DF11D1124208131818B
S1135C0042815381C301B2014CD618168CF0F801BD
S1135C1084E0889EE00DF11D1124208131814281B0
S1135C205381C301B2019DD488231CF48C2E01C07E
S1135C309C2ECF5FDC13D6CFA12CB12CC0E0C12C9D
S1135C40D12C76018C1671F09C1661F0F801EA0DE6
S1135C50FB1D2081318142815381C701B601A4D348
S1135C606B017C01CF5FE4E0AE0EB11CDC13EACF24
S1135C7082E015C001811281C0E0C12CD12C7601D3
S1135C80F80121913191419151918F01C701B601E0
S1135C908BD36B017C01CF5FBC12F2CF80E06D2F00
S1135CA070E0681B7109072E000C880B990BF8D45F
S1135CB09B01AC01C701B60158D403C060E070E099
S1135CC0CB01DF91CF911F910F91FF90EF90DF9067
S1135CD0CF90BF90AF909F908F907F906F905F9088
